:100000000C94CD000C94F5000C94F5000C94F500C4
:100010000C94F5000C94F5000C94F5000C94F5008C
:100020000C94F5000C94F5000C9492050C940106C8
:100030000C94F5000C94F5000C94F5000C94F5006C
:100040000C94F5000C94F5000C94F5000C94F5005C
:100050000C94F5000C94F5000C94F5000C94330806
:100060000C94F5000C94F5000C94F5000C94F5003C
:100070000C94F5000C94F5000C94F5000C94F5002C
:100080000C94F5000C94F5000C94F5000C94F5001C
:100090000C947D080C94F5000C94F5000C94F5007C
:1000A0000C94F5000C94F5000C94F5000000000091
:1000B000240027002A002D00300000000000250049
:1000C00028002B002E00310004040404040304055E
:1000D00002020202040302020202060606060606E5
:1000E00004040202020404040802011040804010CB
:1000F000204080408008020401804020100201104E
:100100008010204040200000000200090F00000382
:100110000401000C000000000000000000000000CE
:100120000000000000080B000202020000090400A9
:100130000001020200000524001001052401010154
:10014000042402060524060001070581031000406F
:1001500009040100020A0000000705020240000035
:10016000070583024000000403090412010002EFA6
:100170000201404123378000010102030141726402
:1001800075696E6F204C4C430041726475696E6FE7
:10019000204D6963726F00009C0911241FBECFEFD0
:1001A000DAE0DEBFCDBF11E0A0E0B1E0E6E6F7E1C6
:1001B00002C005900D92A03DB107D9F722E0A0ED55
:1001C000B1E001C01D92AC3EB207E1F710E0CDEC0A
:1001D000D0E004C02197FE010E94970BCC3CD107D0
:1001E000C9F70E94BD090C94B10B0C940000FC01EE
:1001F00080918F02882311F13FB7F89482E08093B9
:10020000E9002091F200822F90E01816190614F4EC
:1002100081E090E0882339F0289A44E640938E02EA
:100220004091F1004083222339F02091F200211106
:1002300003C02BE62093E8003FBF08958FEF9FEFA8
:1002400008952FB7F89483E08093E9009091E80037
:10025000892F807295FF04C09091F20080E4891B81
:100260002FBF08958091860281110DC082E0809396
:10027000820284E0809383021092850210928402AD
:1002800081E08093860282E892E00895CF93DF9325
:100290001F92CDB7DEB76983DC01ED91FC9102803E
:1002A000F381E02D41E050E0BE016F5F7F4F099583
:1002B0000F90DF91CF91089583E08093E9008091C2
:1002C000F200882319F08AE38093E80008950E94E1
:1002D000210190E00895CF93DF931F92CDB7DEB751
:1002E000FC018485958597FD08C02FEF3FEF35878A
:1002F00024870F90DF91CF910895CE0101960E943F
:10030000F700019719F4898190E0F3CF8FEF9FEF09
:10031000F0CF0F931F93CF93DF931F92CDB7DEB72C
:100320008C01FC018485958597FF0BC0CE01019659
:100330000E94F700019771F4898190E0F801958798
:100340008487F801848595850F90DF91CF911F9167
:100350000F9108958FEF9FEFF1CFFC018485958574
:1003600097FD0BC09FB7F89482E08093E9008091DD
:10037000F2009FBF90E0019608959FB7F89482E045
:100380008093E9008091F2009FBF90E00895409132
:100390007C0250917D0220917A0230917B024217BB
:1003A0005307B4F49091E8009570E1F39091E80060
:1003B00092FD19C08093F10080917C0290917D02A2
:1003C00001968F739927892B19F48EEF8093E8009B
:1003D00080917C0290917D02019690937D028093A2
:1003E0007C0281E0089580E00895EF92FF920F93E0
:1003F0001F93CF93DF93F82E192FE62E042F81E061
:10040000860F880F0E94C70183E00E94C701CF2D8D
:10041000D12FEC0EFD2EF11CCE15DF05B9F007FF34
:1004200013C0FE0184910E94C701182F80E00E9432
:10043000C701812321968111EFCFDF91CF911F91C9
:100440000F91FF90EF9008958881EDCF81E0F5CF77
:10045000DF92EF92FF920F931F93CF93DF93D82EEB
:100460008A01EB017B01E40EF51ECE15DF0559F084
:10047000D7FE12C0FE0184910E94C701219681110E
:10048000F4CF0FEF1FEFC801DF91CF911F910F91B4
:10049000FF90EF90DF9008958881EECF0F931F9328
:1004A000CF93DF931F92CDB7DEB782E0898342E41A
:1004B00050E065E271E080E80E9428020E9432016B
:1004C000DC0112960D911C910115110589F0D801DE
:1004D000ED91FC910280F381E02DBE016F5F7F4FB3
:1004E000C801099597FD04C0F80100851185ECCF7E
:1004F00089810F90DF91CF911F910F9108956150E5
:1005000030F02091F100FC0120830196F8CF289A69
:1005100084E680938E0208950895CF93DF93AC0113
:10052000E0917302F09174023097F1F090917202B1
:10053000809171029817C0F090E0292F30E02617C3
:10054000370754F4D901AE52BE4F240F351FE901CD
:1005500028812C939F5FF1CF1092720260937102F9
:10056000CB01DF91CF910994DF91CF910895282F8E
:1005700030E0F901EA5FFE4F9491F901E951FF4F34
:10058000849128533F4FF9012491222309F430C06C
:100590009923E9F091509F30D0F4E92FF0E0ED522B
:1005A000FD4F0C94970B01030503E202F902FD02D3
:1005B000E702E702E70208030E03120316031C0317
:1005C000E7022003909180009F7790938000E22FB4
:1005D000F0E0EE0FFF1FE654FF4FA591B4919FB7D7
:1005E000F894EC91611132C080958E238C939FBF5B
:1005F0000895909180009F7DE8CF90918000977F33
:10060000E4CF94B59F7794BDE2CF94B59F7DFBCFA7
:10061000909190009F7790939000D9CF9091900007
:100620009F7DF9CF90919000977FF5CF9091C0007A
:100630009F779093C000CBCF9091C0009F7DF9CF62
:100640009091C200977F9093C200C1CF8E2BCECFE6
:10065000CF93DF9390E0FC01E951FF4F2491885341
:100660009F4FFC0184918823D1F090E0880F991F5F
:10067000FC01E455FF4FA591B491FC01E654FF4FF6
:10068000C591D49161110EC09FB7F8948C91E22F5F
:10069000E0958E238C932881E223E8839FBFDF912E
:1006A000CF9108958FB7F894EC91E22BEC938FBF24
:1006B000F6CF3FB7F8948091670290916802A091BD
:1006C0006902B0916A0226B5A89B05C02F3F19F0B8
:1006D0000196A11DB11D3FBFBA2FA92F982F8827C2
:1006E000BC01CD01620F711D811D911D42E0660F9D
:1006F000771F881F991F4A95D1F708958F929F926F
:10070000AF92BF92CF92DF92EF92FF924B015C01CA
:100710000E9459036B017C010E9459036C197D09E9
:100720008E099F09683E734081059105A8F321E079
:10073000821A9108A108B10888EEC80E83E0D81E7D
:10074000E11CF11C81149104A104B10429F7FF906C
:10075000EF90DF90CF90BF90AF909F908F900895D3
:100760008F929F92AF92BF92CF92DF92EF92FF92C1
:100770000F931F93CF93DF936C017B018A018091CC
:100780000B01882309F45CC080918F02882309F44F
:1007900057C08091810280FF05C08091E000826097
:1007A0008093E000E801B12C8AEFA82E93E0892E17
:1007B0002AE3922E209711F4BB20D9F10E94210147
:1007C00081110AC0AA94AA20D9F161E070E080E00A
:1007D00090E00E947E03EECF8C171D0611F00CF006
:1007E0008C2F9FB7F8948092E9002091E80025FDB6
:1007F00002C09FBFDFCF282F30E0C21BD30BF70111
:10080000815020F041914093F100FACFE20EF31EA7
:10081000BB2021F09092E800B12CEBCF8091E80052
:1008200085FDE7CF9092E800BB24B394209709F3AD
:10083000F3CF5D9A84E680938002101611063CF097
:1008400081E090E0F6019383828310E000E0C8012C
:10085000DF91CF911F910F91FF90EF90DF90CF909C
:10086000BF90AF909F908F90089520911802260F0F
:100870003327331F21323105ECF420913C02FC0177
:1008800090E080E0243069F082E00895A0911802A1
:100890002191AC0148505E4FA40FB52FB11D2C9390
:1008A0000196861798F380911802680F60931802DA
:1008B00080E0089581E0089510923C0281E08093E9
:1008C0003E0210923D0261E082E00E94B70261E0C8
:1008D00083E00E94B702E9EBF0E080818E7F8083A5
:1008E00080818D7F808388E48093B80085E4809345
:1008F000BC0008950895E091720280917102E8179A
:1009000030F4F0E0EE52FE4F808190E008958FEFDA
:100910009FEF089590917202809171022FEF3FEF47
:10092000981748F4E92FF0E0EE52FE4F208130E0B6
:100930009F5F90937202C901089580917102909116
:100940007202891B990B0895CF93DF93CB01EA01C3
:10095000642F0E943504CE01DF91CF910895CF938B
:10096000DF931F92CDB7DEB7698361E0CE010196B8
:100970000E94350481E090E00F90DF91CF910895BF
:1009800090E080E00895CF92DF92EF92FF921F9364
:10099000CF93DF93F82E162F60E08EE00E94B7020F
:1009A000C7E0D0E0CC24C394D12CB6010C2E01C0FA
:1009B000660F0A94EAF76F2180E10E94B70261E0B6
:1009C0008FE00E94B70260E08FE00E94B70221979B
:1009D00060F7C7E0D0E0EE24E394F12CB7010C2ED1
:1009E00001C0660F0A94EAF7612380E10E94B70212
:1009F00061E08FE00E94B70260E08FE00E94B702E2
:100A0000219760F761E08EE0DF91CF911F91FF9019
:100A1000EF90DF90CF900C94B7020F931F93CF937A
:100A2000DF9380EE92E00E948A0490937702809395
:100A3000760280EE92E00E948A048093750280EE36
:100A400092E00E948A04D82F00ED11E0F801808323
:100A500080EE92E00E948A04C82FF80181836D2FF6
:100A600081E00E94C3046C2F82E0DF91CF911F913F
:100A70000F910C94C304CF93DF9385ED8093BC005A
:100A80008091F4019091F501A091F601B091F701E8
:100A90000796A11DB11D23E0B695A795979587955B
:100AA0002A95D1F72091BC0024FD03C010923C028E
:100AB00036C04091F4015091F5016091F6017091BA
:100AC000F701452B462B472B69F30097A105B1058C
:100AD00041F025E32A95F1F700000197A109B1093A
:100AE000E1CF8091F30191E09093F2018823B9F076
:100AF000C091B800D091BA008091BC008A7B8093ED
:100B0000BC0060E082E00E94B70260E083E00E94E7
:100B1000B7020E945C04D093BA00C093B800DF9182
:100B2000CF9108951F920F920FB60F9211248F93B9
:100B30009F938091E1009091E100937F9093E10079
:100B400083FF0FC01092E90091E09093EB001092A8
:100B5000EC0092E39093ED0010928F0298E0909356
:100B6000F00082FF22C093E09093E9009091F200A0
:100B7000992319F09AE39093E800909180029923C9
:100B800041F090918002915090938002911101C0A8
:100B90005D9890918E02992341F090918E02915030
:100BA00090938E02911101C0289884FF18C0809103
:100BB000E2008E7E81608093E2008091E1008F7E72
:100BC0008093E100809181028E7E8061809381021A
:100BD0009F918F910F900FBE0F901F90189580FFDF
:100BE000F7CF8091E2008E7E80618093E200809159
:100BF000E1008E7E8093E100809181028E7E816093
:100C0000E5CF1F920F920FB60F921124CF92DF9271
:100C1000EF92FF920F931F932F933F934F935F9306
:100C20006F937F938F939F93AF93BF93EF93FF93B4
:100C3000CF93DF93CDB7DEB76C97DEBFCDBF1092F9
:100C4000E9008091E80083FF25C068E0CE01459669
:100C50000E947F0282EF8093E8008D8987FF39C070
:100C60009091E80090FFFCCF982F907609F034C166
:100C70009E894F89588D2F89F88C911131C0803809
:100C800061F580917F028093F1001092F1008EEF68
:100C90008093E8006C960FB6F894DEBF0FBECDBF10
:100CA000DF91CF91FF91EF91BF91AF919F918F9184
:100CB0007F916F915F914F913F912F911F910F9174
:100CC000FF90EF90DF90CF900F900FBE0F901F908E
:100CD00018959EEF9093E800C7CF1092F100D5CF02
:100CE000913059F48111D3CF4130510581F6809173
:100CF0007F028D7F80937F02CACF933049F48111A8
:100D0000C6CF4130510519F680917F028260F2CF43
:100D1000953041F48091E80080FFFCCF206820935B
:100D2000E300B5CF963009F0A9C00B8D1C8D22E0F1
:100D30001092E90010927D0210927C02F2122EC0F5
:100D400010927B0210927A020E944E021F8299E05A
:100D50009983FA8291E09E8390EA98879AEF998727
:100D600020917C0230917D02275F3F4F3C832B8393
:100D70008D831092E90010927D0210927C021093F4
:100D80007B0200937A0249E050E0BE016F5F7F4F23
:100D900080E00E9428020E944E0279CF10937B02CD
:100DA00000937A020E943201DC0112960D911C918F
:100DB0000115110509F451C1D801ED91FC91048090
:100DC000F581E02DBE016B5E7F4FC801099500974C
:100DD00009F03EC1F80100851185EACFF3E0FF126A
:100DE0000EC08F89882309F440C0823061F440E846
:100DF0006DE089E891E00E94F501811148CF81E220
:100E00008093EB0047CF813029F440E86BE08DE719
:100E100091E0F1CF833099F70E943201DC01129604
:100E2000ED90FC908E010F5F1F4F6801E114F104FB
:100E300079F0D701ED91FC910680F781E02DB801A2
:100E4000C7010995080F111DF701E084F184EECF69
:100E5000D8011C92F60101900020E9F73197BF01FB
:100E60006C197D0940E0C601C6CF67E671E0FB0161
:100E7000449150E080E80E94280209CF973009F49D
:100E8000BECF983021F481E08093F10000CF9930FB
:100E900009F0FDCE837009F0B2CFE5EAF1E081E020
:100EA00031E096E32191222371F08093E9003093A1
:100EB000EB00DF0111972C912093EC009093ED0053
:100EC0008F5F873079F78EE78093EA001092EA000F
:100ED0008F8980938F02DBCE8B8D9C8D1092E900E1
:100EE00010927D0210927C0290937B0280937A0292
:100EF000898D811192C08E899D89913A49F4813200
:100F000009F07DCF47E050E064E071E080E0B3CFCE
:100F1000913209F074CF833269F48F89988DB0E0F3
:100F2000A0E08093000190930101A0930201B0938F
:100F30000301ADCE803269F48091E80082FFFCCFDE
:100F400067E084E091E00E947F028BEF8093E800ED
:100F50009ECE823209F09BCE8F8980930B01EEEFFB
:100F6000FFE7859194918B3F9C4D51F1E0E0F8E0D3
:100F70008091040190910501A0910601B0910701B3
:100F8000803B9440A105B105F1F480910B0180FDF7
:100F90001AC0EE3F8AE0F80789F587E797E7918363
:100FA00080838091600080937E0288E19BE00FB691
:100FB000F894A895809360000FBE9093600067CE70
:100FC000EEEFFAE0D5CF808191818737974709F01E
:100FD0005ECEA895809160008861809360008091CA
:100FE0007E0280936000EE3F2AE0F20789F0809154
:100FF000FE0A9091FF0A9183808349CE808191817E
:101000008737980751F29093FF0A8093FE0AC5CF65
:101010001092FF0A1092FE0A3ACE0E943201DC01C1
:1010200012960D911C910115110509F4E8CED80115
:10103000ED91FC910190F081E02DBE016B5E7F4F40
:10104000C8010995811123CEF80100851185EBCFE8
:10105000181619060CF41BCED2CEF1E0FF12BECE4C
:101060006BE671E004CF1F920F920FB60F9211241E
:101070002F933F938F939F93AF93BF93809163027E
:1010800090916402A0916502B09166023091620273
:1010900023E0230F2D3758F50196A11DB11D209394
:1010A00062028093630290936402A0936502B093FE
:1010B00066028091670290916802A0916902B091E6
:1010C0006A020196A11DB11D809367029093680288
:1010D000A0936902B0936A02BF91AF919F918F91E3
:1010E0003F912F910F900FBE0F901F90189526E8FB
:1010F000230F0296A11DB11DD2CF1F920F920FB6E2
:101100000F9211242F933F934F935F936F937F938D
:101110008F939F93AF93BF93EF93FF938091B90009
:10112000887F803609F44AC0F0F5883209F4A7C0F8
:1011300018F5803109F49BC0B8F4882309F4F9C08C
:10114000883009F494C0FF91EF91BF91AF919F91C6
:101150008F917F916F915F914F913F912F910F9060
:101160000FBE0F901F901895883109F488C0803207
:1011700051F780933B0214C0803409F49DC040F4C1
:101180008033B9F38833F9F680933B0285ECB0C025
:10119000803509F485C0883509F496C0883499F6FD
:1011A0000E943B05D0CF883909F48CC038F58837C8
:1011B00029F050F4883611F0803729F683E08093C7
:1011C0003C0210923A0257C0883809F47BC080393B
:1011D00019F0803809F0B7CF80913A02803208F0D8
:1011E00071C0E0913A0281E08E0F80933A028091C3
:1011F000BB00F0E0E65EFD4F80833DC0803B39F0F0
:10120000E0F4803A09F479C0883A09F09CCF84E090
:1012100080933C021092190210921802E0916D0224
:10122000F0916E0209958091180281110FC081E042
:10123000809318021092F80109C0803C09F4A6CFEF
:10124000883C09F4A3CF883B09F07DCFE0911902D7
:1012500081E08E0F80931902F0E0E850FE4F80810C
:101260008093BB00909119028091180229C080914F
:1012700061028093BB0085EC8093BC0064CF9091A9
:10128000600280915F02981758F5E091600281E05A
:101290008E0F80936002F0E0E15CFD4F8081E9CF2A
:1012A000E091600281E08E0F809360028091BB002C
:1012B000F0E0E15CFD4F80839091600280915F02DD
:1012C0009817C8F285E8D8CFE091600281E08E0FD0
:1012D000809360028091BB00F0E0E15CFD4F808371
:1012E00080913E0281115CCF81E080933D0284EACF
:1012F0008093BC0010923C0226CF85EC8093BC000A
:1013000010923C0280913A02803230F4E0913A022D
:10131000F0E0E65EFD4F108260913A0270E0E091ED
:101320006B02F0916C028AE192E0099510923A0208
:101330000ACF10923B0234CFE0E9F2E0138212822E
:1013400088EE93E0A0E0B0E084839583A683B78322
:101350002FEA31E0318320832FEF3FEF3587248759
:10136000E0EEF2E01382128284839583A683B78332
:1013700081EC91E0918380830895789484B58260B4
:1013800084BD84B5816084BD85B5826085BD85B529
:10139000816085BD80916E00816080936E001092A7
:1013A0008100809181008260809381008091810022
:1013B00081608093810080918000816080938000B3
:1013C0008091910082608093910080919100816072
:1013D0008093910080919000816080939000809133
:1013E000C10084608093C1008091C10082608093BD
:1013F000C1008091C10081608093C1008091C300D1
:1014000081608093C3008091C00082608093C0009F
:101410008091C20081608093C20080917A008460D4
:1014200080937A0080917A00826080937A00809124
:101430007A00816080937A0080917A00806880933E
:101440007A0010928F0210927F0210928102809196
:10145000D70081608093D70080EA8093D80089B557
:10146000806189BD89B5826089BD09B400FEFDCF68
:1014700061E070E080E090E00E947E038091D800FF
:101480008F7C80618093D8008091E000807F809382
:10149000E0008091E1008E7E8093E1008DE08093FA
:1014A000E200559A209A5D98289861E086E00E94B3
:1014B000280361E087E00E94280361E088E00E9441
:1014C000280361E089E00E94280361E08AE00E942D
:1014D0002803109272021092710210927002109200
:1014E0006F020E945C048CE892E090936E028093FD
:1014F0006D028DE892E090936C0280936B0286E01F
:101500008093BA008DE095E090937402809373020B
:1015100061E08FE00E94280361E08EE00E942803D2
:1015200061E080E10E94280361E08EE00E94B70242
:1015300061E08CE00E94C30460E08FE00E94C3047D
:1015400060E089E00E94C30461E08BE00E94C30474
:1015500060E081E00E94C30460E082E00E94C30476
:1015600058E0452E512C60E0662E60E0762E77E044
:10157000C72ED12C80917602909177026AE070E0BC
:101580000E94830B660F771F660F771FDB01A45B3A
:10159000BE4FFC01EE0FFF1FEE0FFF1FE45FFE4F7B
:1015A0008D909D90AD90BC9080819181A281B381FE
:1015B000882A992AAA2ABB2A8091750280FF02C034
:1015C000689494F881FF02C0689482F882FF02C098
:1015D000689483F883FF02C0689484F82CE9E22EB3
:1015E00021E0F22E10E000E0C0917802D091790263
:1015F000F7013080F2E0EF0EF11CCE01801B910B61
:10160000B2010E94830BFC01E770FF27EE0FFF1F62
:10161000E457FE4F808191818130910579F08230CD
:10162000910509F457C0892B69F461E0832D0E946C
:10163000280360E0832D0E94B70204C060E0832D80
:101640000E9428030F5F1F4F0430110569F68E01B9
:1016500086E0F82EC430D1050CF042C0A5019401FB
:10166000002E04C056954795379527950A94D2F7D2
:10167000CA01B90160957095809590956170772742
:10168000882799278F2D0E94B7020C5F1F4FF39474
:101690003BE0F312DFCF2196C830D1057CF5D09323
:1016A0007902C0937802809178029091790297FF35
:1016B00004C0D0927902C092780265E070E080E0C8
:1016C00090E00E947E036114710409F453CF0E94DC
:1016D000000050CF61E0832D0E94280361E0AACF73
:1016E000C8010497A501940104C056954795379504
:1016F00027958A95D2F7622F6170C4CF1092790234
:1017000010927802D0CF97FB072E16F4009407D0E2
:1017100077FD09D00E949D0B07FC05D03EF4909503
:1017200081959F4F0895709561957F4F0895EE0FB5
:10173000FF1F0590F491E02D0994AA1BBB1B51E1FA
:1017400007C0AA1FBB1FA617B70710F0A61BB70B31
:10175000881F991F5A95A9F780959095BC01CD01D6
:061760000895F894FFCF8C
:10176600FFFFFFFF00E100000000000000A00F00E7
:101776000000060000C00B0000400F0000600600DD
:1017860000600D0000E00D000000070000E00F0003
:1017960000600F00000000000000000000000000D4
:1017A600000000000000000000000000A00F000084
:1017B60000060000C00B0000400F0000600600009D
:1017C600600D0000E00D000000070000E00F0000C3
:1017D600600F000000000000000000000000000094
:1017E60000000000000000000000000002000100F0
:1017F60001000100000001000100010000000100DD
:101806000400050000C180810000000000000046C1
:1018160001B00367015C01AD016B018901000000A5
:1018260000AF04A404C0047A049D048A047B040067
:00000001FF
